{
  "_format": "hh-sol-artifact-1",
  "contractName": "Marketplace",
  "sourceName": "src/backend/contracts/Marketplace.sol",
  "abi": [
    {
      "inputs": [
        {
          "internalType": "uint256",
          "name": "_feePercent",
          "type": "uint256"
        }
      ],
      "stateMutability": "nonpayable",
      "type": "constructor"
    },
    {
      "anonymous": false,
      "inputs": [
        {
          "indexed": false,
          "internalType": "uint256",
          "name": "limit",
          "type": "uint256"
        },
        {
          "indexed": false,
          "internalType": "address",
          "name": "owner",
          "type": "address"
        },
        {
          "indexed": false,
          "internalType": "bool",
          "name": "status",
          "type": "bool"
        }
      ],
      "name": "Benefict",
      "type": "event"
    },
    {
      "anonymous": false,
      "inputs": [
        {
          "indexed": false,
          "internalType": "uint256",
          "name": "itemId",
          "type": "uint256"
        },
        {
          "indexed": true,
          "internalType": "address",
          "name": "nft",
          "type": "address"
        },
        {
          "indexed": false,
          "internalType": "uint256",
          "name": "tokenId",
          "type": "uint256"
        },
        {
          "indexed": false,
          "internalType": "uint256",
          "name": "price",
          "type": "uint256"
        },
        {
          "indexed": true,
          "internalType": "address",
          "name": "seller",
          "type": "address"
        },
        {
          "indexed": true,
          "internalType": "address",
          "name": "buyer",
          "type": "address"
        }
      ],
      "name": "Bought",
      "type": "event"
    },
    {
      "anonymous": false,
      "inputs": [
        {
          "indexed": false,
          "internalType": "uint256",
          "name": "itemId",
          "type": "uint256"
        },
        {
          "indexed": true,
          "internalType": "address",
          "name": "nft",
          "type": "address"
        },
        {
          "indexed": false,
          "internalType": "uint256",
          "name": "tokenId",
          "type": "uint256"
        },
        {
          "indexed": false,
          "internalType": "uint256",
          "name": "price",
          "type": "uint256"
        },
        {
          "indexed": true,
          "internalType": "address",
          "name": "seller",
          "type": "address"
        }
      ],
      "name": "Offered",
      "type": "event"
    },
    {
      "inputs": [],
      "name": "feeAccount",
      "outputs": [
        {
          "internalType": "address payable",
          "name": "",
          "type": "address"
        }
      ],
      "stateMutability": "view",
      "type": "function"
    },
    {
      "inputs": [],
      "name": "feePercent",
      "outputs": [
        {
          "internalType": "uint256",
          "name": "",
          "type": "uint256"
        }
      ],
      "stateMutability": "view",
      "type": "function"
    },
    {
      "inputs": [
        {
          "internalType": "uint256",
          "name": "_itemId",
          "type": "uint256"
        }
      ],
      "name": "getTotalPrice",
      "outputs": [
        {
          "internalType": "uint256",
          "name": "",
          "type": "uint256"
        }
      ],
      "stateMutability": "view",
      "type": "function"
    },
    {
      "inputs": [],
      "name": "itemCount",
      "outputs": [
        {
          "internalType": "uint256",
          "name": "",
          "type": "uint256"
        }
      ],
      "stateMutability": "view",
      "type": "function"
    },
    {
      "inputs": [
        {
          "internalType": "uint256",
          "name": "",
          "type": "uint256"
        }
      ],
      "name": "items",
      "outputs": [
        {
          "internalType": "uint256",
          "name": "itemId",
          "type": "uint256"
        },
        {
          "internalType": "contract IERC721",
          "name": "nft",
          "type": "address"
        },
        {
          "internalType": "uint256",
          "name": "tokenId",
          "type": "uint256"
        },
        {
          "internalType": "uint256",
          "name": "price",
          "type": "uint256"
        },
        {
          "internalType": "address payable",
          "name": "seller",
          "type": "address"
        },
        {
          "internalType": "bool",
          "name": "sold",
          "type": "bool"
        },
        {
          "internalType": "address",
          "name": "buyer",
          "type": "address"
        },
        {
          "internalType": "uint256",
          "name": "useLimit",
          "type": "uint256"
        }
      ],
      "stateMutability": "view",
      "type": "function"
    },
    {
      "inputs": [
        {
          "internalType": "contract IERC721",
          "name": "_nft",
          "type": "address"
        },
        {
          "internalType": "uint256",
          "name": "_tokenId",
          "type": "uint256"
        },
        {
          "internalType": "uint256",
          "name": "_price",
          "type": "uint256"
        },
        {
          "internalType": "uint256",
          "name": "_limit",
          "type": "uint256"
        }
      ],
      "name": "makeItem",
      "outputs": [],
      "stateMutability": "nonpayable",
      "type": "function"
    },
    {
      "inputs": [
        {
          "internalType": "uint256",
          "name": "_itemId",
          "type": "uint256"
        }
      ],
      "name": "purchaseItem",
      "outputs": [],
      "stateMutability": "payable",
      "type": "function"
    },
    {
      "inputs": [
        {
          "internalType": "address",
          "name": "owner",
          "type": "address"
        },
        {
          "internalType": "uint256",
          "name": "_itemId",
          "type": "uint256"
        }
      ],
      "name": "validation",
      "outputs": [
        {
          "internalType": "bool",
          "name": "",
          "type": "bool"
        }
      ],
      "stateMutability": "nonpayable",
      "type": "function"
    }
  ],
  "bytecode": "0x60c060405234801561001057600080fd5b50604051620013f9380380620013f983398181016040528101906100349190610096565b60016000819055503373ffffffffffffffffffffffffffffffffffffffff1660808173ffffffffffffffffffffffffffffffffffffffff1660601b815250508060a08181525050506100e0565b600081519050610090816100c9565b92915050565b6000602082840312156100a857600080fd5b60006100b684828501610081565b91505092915050565b6000819050919050565b6100d2816100bf565b81146100dd57600080fd5b50565b60805160601c60a0516112e26200011760003960008181610578015261065501526000818161020601526107d901526112e26000f3fe60806040526004361061007b5760003560e01c8063bfb231d21161004e578063bfb231d21461012a578063ca7dd3751461016e578063d38ea5bf146101ab578063e9aec3f1146101c75761007b565b806365e17c9d14610080578063696aae08146100ab5780636bfb0d01146100d45780637fd6f15c146100ff575b600080fd5b34801561008c57600080fd5b50610095610204565b6040516100a29190610d72565b60405180910390f35b3480156100b757600080fd5b506100d260048036038101906100cd9190610c0f565b610228565b005b3480156100e057600080fd5b506100e9610570565b6040516100f69190610e5f565b60405180910390f35b34801561010b57600080fd5b50610114610576565b6040516101219190610e5f565b60405180910390f35b34801561013657600080fd5b50610151600480360381019061014c9190610c72565b61059a565b604051610165989796959493929190610eb1565b60405180910390f35b34801561017a57600080fd5b5061019560048036038101906101909190610c72565b61064f565b6040516101a29190610e5f565b60405180910390f35b6101c560048036038101906101c09190610c72565b6106b2565b005b3480156101d357600080fd5b506101ee60048036038101906101e99190610bd3565b610a39565b6040516101fb9190610dc4565b60405180910390f35b7f000000000000000000000000000000000000000000000000000000000000000081565b6002600054141561026e576040517f08c379a000000000000000000000000000000000000000000000000000000000815260040161026590610e3f565b60405180910390fd5b6002600081905550600082116102b9576040517f08c379a00000000000000000000000000000000000000000000000000000000081526004016102b090610ddf565b60405180910390fd5b600160008154809291906102cc9061111c565b91905055508373ffffffffffffffffffffffffffffffffffffffff166323b872dd3330866040518463ffffffff1660e01b815260040161030e93929190610d8d565b600060405180830381600087803b15801561032857600080fd5b505af115801561033c573d6000803e3d6000fd5b5050505060405180610100016040528060015481526020018573ffffffffffffffffffffffffffffffffffffffff1681526020018481526020018381526020013373ffffffffffffffffffffffffffffffffffffffff168152602001600015158152602001600073ffffffffffffffffffffffffffffffffffffffff168152602001828152506002600060015481526020019081526020016000206000820151816000015560208201518160010160006101000a81548173ffffffffffffffffffffffffffffffffffffffff021916908373ffffffffffffffffffffffffffffffffffffffff160217905550604082015181600201556060820151816003015560808201518160040160006101000a81548173ffffffffffffffffffffffffffffffffffffffff021916908373ffffffffffffffffffffffffffffffffffffffff16021790555060a08201518160040160146101000a81548160ff02191690831515021790555060c08201518160050160006101000a81548173ffffffffffffffffffffffffffffffffffffffff021916908373ffffffffffffffffffffffffffffffffffffffff16021790555060e082015181600601559050503373ffffffffffffffffffffffffffffffffffffffff168473ffffffffffffffffffffffffffffffffffffffff167f655a0cf9c8db81512be9a76dc1c5ae5380b8816ce6ad659cd61b715e2999d59a600154868660405161055a93929190610f2f565b60405180910390a3600160008190555050505050565b60015481565b7f000000000000000000000000000000000000000000000000000000000000000081565b60026020528060005260406000206000915090508060000154908060010160009054906101000a900473ffffffffffffffffffffffffffffffffffffffff16908060020154908060030154908060040160009054906101000a900473ffffffffffffffffffffffffffffffffffffffff16908060040160149054906101000a900460ff16908060050160009054906101000a900473ffffffffffffffffffffffffffffffffffffffff16908060060154905088565b600060647f000000000000000000000000000000000000000000000000000000000000000060646106809190610f77565b60026000858152602001908152602001600020600301546106a19190610ffe565b6106ab9190610fcd565b9050919050565b600260005414156106f8576040517f08c379a00000000000000000000000000000000000000000000000000000000081526004016106ef90610e3f565b60405180910390fd5b6002600081905550600061070b8261064f565b9050600060026000848152602001908152602001600020905060008311801561073657506001548311155b61073f57600080fd5b8134101561074c57600080fd5b8060040160149054906101000a900460ff161561076857600080fd5b8060040160009054906101000a900473ffffffffffffffffffffffffffffffffffffffff1673ffffffffffffffffffffffffffffffffffffffff166108fc82600301549081150290604051600060405180830381858888f193505050501580156107d6573d6000803e3d6000fd5b507f000000000000000000000000000000000000000000000000000000000000000073ffffffffffffffffffffffffffffffffffffffff166108fc8260030154846108219190611058565b9081150290604051600060405180830381858888f1935050505015801561084c573d6000803e3d6000fd5b5060018160040160146101000a81548160ff021916908315150217905550338160050160006101000a81548173ffffffffffffffffffffffffffffffffffffffff021916908373ffffffffffffffffffffffffffffffffffffffff1602179055508060010160009054906101000a900473ffffffffffffffffffffffffffffffffffffffff1673ffffffffffffffffffffffffffffffffffffffff166323b872dd303384600201546040518463ffffffff1660e01b815260040161091293929190610d8d565b600060405180830381600087803b15801561092c57600080fd5b505af1158015610940573d6000803e3d6000fd5b505050504260036000858152602001908152602001600020819055503373ffffffffffffffffffffffffffffffffffffffff168160040160009054906101000a900473ffffffffffffffffffffffffffffffffffffffff1673ffffffffffffffffffffffffffffffffffffffff168260010160009054906101000a900473ffffffffffffffffffffffffffffffffffffffff1673ffffffffffffffffffffffffffffffffffffffff167f8b4c9c8a607d67b321582dd8461041b1dc2ceeca70c8b7f37f8e02095cf2e76d8685600201548660030154604051610a2493929190610f2f565b60405180910390a45050600160008190555050565b60008060026000848152602001908152602001600020905060008160050160009054906101000a900473ffffffffffffffffffffffffffffffffffffffff1673ffffffffffffffffffffffffffffffffffffffff168573ffffffffffffffffffffffffffffffffffffffff1614610ae5576040517f08c379a0000000000000000000000000000000000000000000000000000000008152600401610adc90610dff565b60405180910390fd5b60008260060154905060008111610b31576040517f08c379a0000000000000000000000000000000000000000000000000000000008152600401610b2890610e1f565b60405180910390fd5b600181610b3e9190611058565b9050808360060181905550600191507fd31364b21d53eff6a67223c0786a8a72264ccf441fb13bcdfcfe0aeec4969b92813384604051610b8093929190610e7a565b60405180910390a181935050505092915050565b600081359050610ba381611267565b92915050565b600081359050610bb88161127e565b92915050565b600081359050610bcd81611295565b92915050565b60008060408385031215610be657600080fd5b6000610bf485828601610b94565b9250506020610c0585828601610bbe565b9150509250929050565b60008060008060808587031215610c2557600080fd5b6000610c3387828801610ba9565b9450506020610c4487828801610bbe565b9350506040610c5587828801610bbe565b9250506060610c6687828801610bbe565b91505092959194509250565b600060208284031215610c8457600080fd5b6000610c9284828501610bbe565b91505092915050565b610ca48161109e565b82525050565b610cb38161108c565b82525050565b610cc2816110b0565b82525050565b610cd1816110f8565b82525050565b6000610ce4601f83610f66565b9150610cef826111c3565b602082019050919050565b6000610d07602083610f66565b9150610d12826111ec565b602082019050919050565b6000610d2a601483610f66565b9150610d3582611215565b602082019050919050565b6000610d4d601f83610f66565b9150610d588261123e565b602082019050919050565b610d6c816110ee565b82525050565b6000602082019050610d876000830184610c9b565b92915050565b6000606082019050610da26000830186610caa565b610daf6020830185610caa565b610dbc6040830184610d63565b949350505050565b6000602082019050610dd96000830184610cb9565b92915050565b60006020820190508181036000830152610df881610cd7565b9050919050565b60006020820190508181036000830152610e1881610cfa565b9050919050565b60006020820190508181036000830152610e3881610d1d565b9050919050565b60006020820190508181036000830152610e5881610d40565b9050919050565b6000602082019050610e746000830184610d63565b92915050565b6000606082019050610e8f6000830186610d63565b610e9c6020830185610caa565b610ea96040830184610cb9565b949350505050565b600061010082019050610ec7600083018b610d63565b610ed4602083018a610cc8565b610ee16040830189610d63565b610eee6060830188610d63565b610efb6080830187610c9b565b610f0860a0830186610cb9565b610f1560c0830185610caa565b610f2260e0830184610d63565b9998505050505050505050565b6000606082019050610f446000830186610d63565b610f516020830185610d63565b610f5e6040830184610d63565b949350505050565b600082825260208201905092915050565b6000610f82826110ee565b9150610f8d836110ee565b9250827fffffffffffffffffffffffffffffffffffffffffffffffffffffffffffffffff03821115610fc257610fc1611165565b5b828201905092915050565b6000610fd8826110ee565b9150610fe3836110ee565b925082610ff357610ff2611194565b5b828204905092915050565b6000611009826110ee565b9150611014836110ee565b9250817fffffffffffffffffffffffffffffffffffffffffffffffffffffffffffffffff048311821515161561104d5761104c611165565b5b828202905092915050565b6000611063826110ee565b915061106e836110ee565b92508282101561108157611080611165565b5b828203905092915050565b6000611097826110ce565b9050919050565b60006110a9826110ce565b9050919050565b60008115159050919050565b60006110c78261108c565b9050919050565b600073ffffffffffffffffffffffffffffffffffffffff82169050919050565b6000819050919050565b60006111038261110a565b9050919050565b6000611115826110ce565b9050919050565b6000611127826110ee565b91507fffffffffffffffffffffffffffffffffffffffffffffffffffffffffffffffff82141561115a57611159611165565b5b600182019050919050565b7f4e487b7100000000000000000000000000000000000000000000000000000000600052601160045260246000fd5b7f4e487b7100000000000000000000000000000000000000000000000000000000600052601260045260246000fd5b7f5072696365206d7573742062652067726561746572207468616e207a65726f00600082015250565b7f4f6e6c7920746865206f776e65722063616e207365652062656e656669637473600082015250565b7f42656e65666963696f20796120636f627261646f000000000000000000000000600082015250565b7f5265656e7472616e637947756172643a207265656e7472616e742063616c6c00600082015250565b6112708161108c565b811461127b57600080fd5b50565b611287816110bc565b811461129257600080fd5b50565b61129e816110ee565b81146112a957600080fd5b5056fea264697066735822122005e6b0c6a1fbe42f9d097d8d698cf4f6817670898a054008bfdaf56aa599a25f64736f6c63430008040033",
  "linkReferences": {},
  "deployedLinkReferences": {}
}