{
  "_format": "hh-sol-artifact-1",
  "contractName": "NFT",
  "sourceName": "src/backend/contracts/NFT.sol",
  "abi": [
    {
      "inputs": [],
      "stateMutability": "nonpayable",
      "type": "constructor"
    },
    {
      "anonymous": false,
      "inputs": [
        {
          "indexed": true,
          "internalType": "address",
          "name": "owner",
          "type": "address"
        },
        {
          "indexed": true,
          "internalType": "address",
          "name": "approved",
          "type": "address"
        },
        {
          "indexed": true,
          "internalType": "uint256",
          "name": "tokenId",
          "type": "uint256"
        }
      ],
      "name": "Approval",
      "type": "event"
    },
    {
      "anonymous": false,
      "inputs": [
        {
          "indexed": true,
          "internalType": "address",
          "name": "owner",
          "type": "address"
        },
        {
          "indexed": true,
          "internalType": "address",
          "name": "operator",
          "type": "address"
        },
        {
          "indexed": false,
          "internalType": "bool",
          "name": "approved",
          "type": "bool"
        }
      ],
      "name": "ApprovalForAll",
      "type": "event"
    },
    {
      "anonymous": false,
      "inputs": [
        {
          "indexed": true,
          "internalType": "address",
          "name": "from",
          "type": "address"
        },
        {
          "indexed": true,
          "internalType": "address",
          "name": "to",
          "type": "address"
        },
        {
          "indexed": true,
          "internalType": "uint256",
          "name": "tokenId",
          "type": "uint256"
        }
      ],
      "name": "Transfer",
      "type": "event"
    },
    {
      "inputs": [
        {
          "internalType": "address",
          "name": "to",
          "type": "address"
        },
        {
          "internalType": "uint256",
          "name": "tokenId",
          "type": "uint256"
        }
      ],
      "name": "approve",
      "outputs": [],
      "stateMutability": "nonpayable",
      "type": "function"
    },
    {
      "inputs": [
        {
          "internalType": "address",
          "name": "owner",
          "type": "address"
        }
      ],
      "name": "balanceOf",
      "outputs": [
        {
          "internalType": "uint256",
          "name": "",
          "type": "uint256"
        }
      ],
      "stateMutability": "view",
      "type": "function"
    },
    {
      "inputs": [
        {
          "internalType": "uint256",
          "name": "",
          "type": "uint256"
        }
      ],
      "name": "collections",
      "outputs": [
        {
          "internalType": "string",
          "name": "collection_name",
          "type": "string"
        },
        {
          "internalType": "uint256",
          "name": "exist",
          "type": "uint256"
        },
        {
          "internalType": "uint256",
          "name": "token_id",
          "type": "uint256"
        },
        {
          "internalType": "string",
          "name": "description",
          "type": "string"
        }
      ],
      "stateMutability": "view",
      "type": "function"
    },
    {
      "inputs": [
        {
          "internalType": "uint256",
          "name": "tokenId",
          "type": "uint256"
        }
      ],
      "name": "getApproved",
      "outputs": [
        {
          "internalType": "address",
          "name": "",
          "type": "address"
        }
      ],
      "stateMutability": "view",
      "type": "function"
    },
    {
      "inputs": [
        {
          "internalType": "uint256",
          "name": "_id",
          "type": "uint256"
        }
      ],
      "name": "getName",
      "outputs": [
        {
          "internalType": "string",
          "name": "name",
          "type": "string"
        }
      ],
      "stateMutability": "view",
      "type": "function"
    },
    {
      "inputs": [],
      "name": "getSize",
      "outputs": [
        {
          "internalType": "uint256",
          "name": "size",
          "type": "uint256"
        }
      ],
      "stateMutability": "view",
      "type": "function"
    },
    {
      "inputs": [
        {
          "internalType": "address",
          "name": "owner",
          "type": "address"
        },
        {
          "internalType": "address",
          "name": "operator",
          "type": "address"
        }
      ],
      "name": "isApprovedForAll",
      "outputs": [
        {
          "internalType": "bool",
          "name": "",
          "type": "bool"
        }
      ],
      "stateMutability": "view",
      "type": "function"
    },
    {
      "inputs": [
        {
          "internalType": "string",
          "name": "_name",
          "type": "string"
        },
        {
          "internalType": "uint32",
          "name": "_exist",
          "type": "uint32"
        },
        {
          "internalType": "string",
          "name": "_description",
          "type": "string"
        },
        {
          "internalType": "string",
          "name": "_tokenURI",
          "type": "string"
        }
      ],
      "name": "mint",
      "outputs": [
        {
          "internalType": "uint256",
          "name": "",
          "type": "uint256"
        }
      ],
      "stateMutability": "nonpayable",
      "type": "function"
    },
    {
      "inputs": [],
      "name": "name",
      "outputs": [
        {
          "internalType": "string",
          "name": "",
          "type": "string"
        }
      ],
      "stateMutability": "view",
      "type": "function"
    },
    {
      "inputs": [
        {
          "internalType": "uint256",
          "name": "tokenId",
          "type": "uint256"
        }
      ],
      "name": "ownerOf",
      "outputs": [
        {
          "internalType": "address",
          "name": "",
          "type": "address"
        }
      ],
      "stateMutability": "view",
      "type": "function"
    },
    {
      "inputs": [
        {
          "internalType": "address",
          "name": "from",
          "type": "address"
        },
        {
          "internalType": "address",
          "name": "to",
          "type": "address"
        },
        {
          "internalType": "uint256",
          "name": "tokenId",
          "type": "uint256"
        }
      ],
      "name": "safeTransferFrom",
      "outputs": [],
      "stateMutability": "nonpayable",
      "type": "function"
    },
    {
      "inputs": [
        {
          "internalType": "address",
          "name": "from",
          "type": "address"
        },
        {
          "internalType": "address",
          "name": "to",
          "type": "address"
        },
        {
          "internalType": "uint256",
          "name": "tokenId",
          "type": "uint256"
        },
        {
          "internalType": "bytes",
          "name": "_data",
          "type": "bytes"
        }
      ],
      "name": "safeTransferFrom",
      "outputs": [],
      "stateMutability": "nonpayable",
      "type": "function"
    },
    {
      "inputs": [
        {
          "internalType": "address",
          "name": "operator",
          "type": "address"
        },
        {
          "internalType": "bool",
          "name": "approved",
          "type": "bool"
        }
      ],
      "name": "setApprovalForAll",
      "outputs": [],
      "stateMutability": "nonpayable",
      "type": "function"
    },
    {
      "inputs": [
        {
          "internalType": "bytes4",
          "name": "interfaceId",
          "type": "bytes4"
        }
      ],
      "name": "supportsInterface",
      "outputs": [
        {
          "internalType": "bool",
          "name": "",
          "type": "bool"
        }
      ],
      "stateMutability": "view",
      "type": "function"
    },
    {
      "inputs": [],
      "name": "symbol",
      "outputs": [
        {
          "internalType": "string",
          "name": "",
          "type": "string"
        }
      ],
      "stateMutability": "view",
      "type": "function"
    },
    {
      "inputs": [],
      "name": "tokenCount",
      "outputs": [
        {
          "internalType": "uint256",
          "name": "",
          "type": "uint256"
        }
      ],
      "stateMutability": "view",
      "type": "function"
    },
    {
      "inputs": [
        {
          "internalType": "uint256",
          "name": "tokenId",
          "type": "uint256"
        }
      ],
      "name": "tokenURI",
      "outputs": [
        {
          "internalType": "string",
          "name": "",
          "type": "string"
        }
      ],
      "stateMutability": "view",
      "type": "function"
    },
    {
      "inputs": [
        {
          "internalType": "address",
          "name": "from",
          "type": "address"
        },
        {
          "internalType": "address",
          "name": "to",
          "type": "address"
        },
        {
          "internalType": "uint256",
          "name": "tokenId",
          "type": "uint256"
        }
      ],
      "name": "transferFrom",
      "outputs": [],
      "stateMutability": "nonpayable",
      "type": "function"
    }
  ],
  "bytecode": "0x60806040523480156200001157600080fd5b506040518060400160405280600881526020017f44417070204e46540000000000000000000000000000000000000000000000008152506040518060400160405280600481526020017f4441505000000000000000000000000000000000000000000000000000000000815250816000908051906020019062000096929190620000b8565b508060019080519060200190620000af929190620000b8565b505050620001cd565b828054620000c69062000168565b90600052602060002090601f016020900481019282620000ea576000855562000136565b82601f106200010557805160ff191683800117855562000136565b8280016001018555821562000136579182015b828111156200013557825182559160200191906001019062000118565b5b50905062000145919062000149565b5090565b5b80821115620001645760008160009055506001016200014a565b5090565b600060028204905060018216806200018157607f821691505b602082108114156200019857620001976200019e565b5b50919050565b7f4e487b7100000000000000000000000000000000000000000000000000000000600052602260045260246000fd5b61309180620001dd6000396000f3fe608060405234801561001057600080fd5b50600436106101165760003560e01c806395d89b41116100a2578063c87b56dd11610071578063c87b56dd146102f1578063de8fa43114610321578063e985e9c51461033f578063f45113f21461036f578063fdbda0ec1461039f57610116565b806395d89b411461027d5780639f181b5e1461029b578063a22cb465146102b9578063b88d4fde146102d557610116565b806323b872dd116100e957806323b872dd146101b557806342842e0e146101d15780636352211e146101ed5780636b8ff5741461021d57806370a082311461024d57610116565b806301ffc9a71461011b57806306fdde031461014b578063081812fc14610169578063095ea7b314610199575b600080fd5b61013560048036038101906101309190612019565b6103d2565b60405161014291906124ca565b60405180910390f35b6101536104b4565b60405161016091906124e5565b60405180910390f35b610183600480360381019061017e9190612116565b610546565b6040516101909190612463565b60405180910390f35b6101b360048036038101906101ae9190611fdd565b6105cb565b005b6101cf60048036038101906101ca9190611ed7565b6106e3565b005b6101eb60048036038101906101e69190611ed7565b610743565b005b61020760048036038101906102029190612116565b610763565b6040516102149190612463565b60405180910390f35b61023760048036038101906102329190612116565b610815565b60405161024491906124e5565b60405180910390f35b61026760048036038101906102629190611e72565b6108f2565b604051610274919061275a565b60405180910390f35b6102856109aa565b60405161029291906124e5565b60405180910390f35b6102a3610a3c565b6040516102b0919061275a565b60405180910390f35b6102d360048036038101906102ce9190611fa1565b610a42565b005b6102ef60048036038101906102ea9190611f26565b610a58565b005b61030b60048036038101906103069190612116565b610aba565b60405161031891906124e5565b60405180910390f35b610329610c0c565b604051610336919061275a565b60405180910390f35b61035960048036038101906103549190611e9b565b610c19565b60405161036691906124ca565b60405180910390f35b6103896004803603810190610384919061206b565b610cad565b604051610396919061275a565b60405180910390f35b6103b960048036038101906103b49190612116565b610d96565b6040516103c99493929190612507565b60405180910390f35b60007f80ac58cd000000000000000000000000000000000000000000000000000000007bffffffffffffffffffffffffffffffffffffffffffffffffffffffff1916827bffffffffffffffffffffffffffffffffffffffffffffffffffffffff1916148061049d57507f5b5e139f000000000000000000000000000000000000000000000000000000007bffffffffffffffffffffffffffffffffffffffffffffffffffffffff1916827bffffffffffffffffffffffffffffffffffffffffffffffffffffffff1916145b806104ad57506104ac82610ee6565b5b9050919050565b6060600080546104c3906129c0565b80601f01602080910402602001604051908101604052809291908181526020018280546104ef906129c0565b801561053c5780601f106105115761010080835404028352916020019161053c565b820191906000526020600020905b81548152906001019060200180831161051f57829003601f168201915b5050505050905090565b600061055182610f50565b610590576040517f08c379a0000000000000000000000000000000000000000000000000000000008152600401610587906126da565b60405180910390fd5b6004600083815260200190815260200160002060009054906101000a900473ffffffffffffffffffffffffffffffffffffffff169050919050565b60006105d682610763565b90508073ffffffffffffffffffffffffffffffffffffffff168373ffffffffffffffffffffffffffffffffffffffff161415610647576040517f08c379a000000000000000000000000000000000000000000000000000000000815260040161063e9061271a565b60405180910390fd5b8073ffffffffffffffffffffffffffffffffffffffff16610666610fbc565b73ffffffffffffffffffffffffffffffffffffffff16148061069557506106948161068f610fbc565b610c19565b5b6106d4576040517f08c379a00000000000000000000000000000000000000000000000000000000081526004016106cb9061261a565b60405180910390fd5b6106de8383610fc4565b505050565b6106f46106ee610fbc565b8261107d565b610733576040517f08c379a000000000000000000000000000000000000000000000000000000000815260040161072a9061273a565b60405180910390fd5b61073e83838361115b565b505050565b61075e83838360405180602001604052806000815250610a58565b505050565b6000806002600084815260200190815260200160002060009054906101000a900473ffffffffffffffffffffffffffffffffffffffff169050600073ffffffffffffffffffffffffffffffffffffffff168173ffffffffffffffffffffffffffffffffffffffff16141561080c576040517f08c379a00000000000000000000000000000000000000000000000000000000081526004016108039061265a565b60405180910390fd5b80915050919050565b606060088281548110610851577f4e487b7100000000000000000000000000000000000000000000000000000000600052603260045260246000fd5b9060005260206000209060040201600001805461086d906129c0565b80601f0160208091040260200160405190810160405280929190818152602001828054610899906129c0565b80156108e65780601f106108bb576101008083540402835291602001916108e6565b820191906000526020600020905b8154815290600101906020018083116108c957829003601f168201915b50505050509050919050565b60008073ffffffffffffffffffffffffffffffffffffffff168273ffffffffffffffffffffffffffffffffffffffff161415610963576040517f08c379a000000000000000000000000000000000000000000000000000000000815260040161095a9061263a565b60405180910390fd5b600360008373ffffffffffffffffffffffffffffffffffffffff1673ffffffffffffffffffffffffffffffffffffffff168152602001908152602001600020549050919050565b6060600180546109b9906129c0565b80601f01602080910402602001604051908101604052809291908181526020018280546109e5906129c0565b8015610a325780601f10610a0757610100808354040283529160200191610a32565b820191906000526020600020905b815481529060010190602001808311610a1557829003601f168201915b5050505050905090565b60075481565b610a54610a4d610fbc565b83836113c2565b5050565b610a69610a63610fbc565b8361107d565b610aa8576040517f08c379a0000000000000000000000000000000000000000000000000000000008152600401610a9f9061273a565b60405180910390fd5b610ab48484848461152f565b50505050565b6060610ac582610f50565b610b04576040517f08c379a0000000000000000000000000000000000000000000000000000000008152600401610afb906126ba565b60405180910390fd5b6000600660008481526020019081526020016000208054610b24906129c0565b80601f0160208091040260200160405190810160405280929190818152602001828054610b50906129c0565b8015610b9d5780601f10610b7257610100808354040283529160200191610b9d565b820191906000526020600020905b815481529060010190602001808311610b8057829003601f168201915b505050505090506000610bae61158b565b9050600081511415610bc4578192505050610c07565b600082511115610bf9578082604051602001610be192919061243f565b60405160208183030381529060405292505050610c07565b610c02846115a2565b925050505b919050565b6000600880549050905090565b6000600560008473ffffffffffffffffffffffffffffffffffffffff1673ffffffffffffffffffffffffffffffffffffffff16815260200190815260200160002060008373ffffffffffffffffffffffffffffffffffffffff1673ffffffffffffffffffffffffffffffffffffffff16815260200190815260200160002060009054906101000a900460ff16905092915050565b600060076000815480929190610cc290612a23565b9190505550600060405180608001604052808781526020018663ffffffff168152602001600754815260200185815250905060088190806001815401808255809150506001900390600052602060002090600402016000909190919091506000820151816000019080519060200190610d3c929190611c81565b5060208201518160010155604082015181600201556060820151816003019080519060200190610d6d929190611c81565b505050610d7c33600754611649565b610d8860075484611667565b600754915050949350505050565b60088181548110610da657600080fd5b9060005260206000209060040201600091509050806000018054610dc9906129c0565b80601f0160208091040260200160405190810160405280929190818152602001828054610df5906129c0565b8015610e425780601f10610e1757610100808354040283529160200191610e42565b820191906000526020600020905b815481529060010190602001808311610e2557829003601f168201915b505050505090806001015490806002015490806003018054610e63906129c0565b80601f0160208091040260200160405190810160405280929190818152602001828054610e8f906129c0565b8015610edc5780601f10610eb157610100808354040283529160200191610edc565b820191906000526020600020905b815481529060010190602001808311610ebf57829003601f168201915b5050505050905084565b60007f01ffc9a7000000000000000000000000000000000000000000000000000000007bffffffffffffffffffffffffffffffffffffffffffffffffffffffff1916827bffffffffffffffffffffffffffffffffffffffffffffffffffffffff1916149050919050565b60008073ffffffffffffffffffffffffffffffffffffffff166002600084815260200190815260200160002060009054906101000a900473ffffffffffffffffffffffffffffffffffffffff1673ffffffffffffffffffffffffffffffffffffffff1614159050919050565b600033905090565b816004600083815260200190815260200160002060006101000a81548173ffffffffffffffffffffffffffffffffffffffff021916908373ffffffffffffffffffffffffffffffffffffffff160217905550808273ffffffffffffffffffffffffffffffffffffffff1661103783610763565b73ffffffffffffffffffffffffffffffffffffffff167f8c5be1e5ebec7d5bd14f71427d1e84f3dd0314c0f7b2291e5b200ac8c7c3b92560405160405180910390a45050565b600061108882610f50565b6110c7576040517f08c379a00000000000000000000000000000000000000000000000000000000081526004016110be906125fa565b60405180910390fd5b60006110d283610763565b90508073ffffffffffffffffffffffffffffffffffffffff168473ffffffffffffffffffffffffffffffffffffffff16148061114157508373ffffffffffffffffffffffffffffffffffffffff1661112984610546565b73ffffffffffffffffffffffffffffffffffffffff16145b8061115257506111518185610c19565b5b91505092915050565b8273ffffffffffffffffffffffffffffffffffffffff1661117b82610763565b73ffffffffffffffffffffffffffffffffffffffff16146111d1576040517f08c379a00000000000000000000000000000000000000000000000000000000081526004016111c89061257a565b60405180910390fd5b600073ffffffffffffffffffffffffffffffffffffffff168273ffffffffffffffffffffffffffffffffffffffff161415611241576040517f08c379a0000000000000000000000000000000000000000000000000000000008152600401611238906125ba565b60405180910390fd5b61124c8383836116db565b611257600082610fc4565b6001600360008573ffffffffffffffffffffffffffffffffffffffff1673ffffffffffffffffffffffffffffffffffffffff16815260200190815260200160002060008282546112a791906128c6565b925050819055506001600360008473ffffffffffffffffffffffffffffffffffffffff1673ffffffffffffffffffffffffffffffffffffffff16815260200190815260200160002060008282546112fe919061283f565b92505081905550816002600083815260200190815260200160002060006101000a81548173ffffffffffffffffffffffffffffffffffffffff021916908373ffffffffffffffffffffffffffffffffffffffff160217905550808273ffffffffffffffffffffffffffffffffffffffff168473ffffffffffffffffffffffffffffffffffffffff167fddf252ad1be2c89b69c2b068fc378daa952ba7f163c4a11628f55a4df523b3ef60405160405180910390a46113bd8383836116e0565b505050565b8173ffffffffffffffffffffffffffffffffffffffff168373ffffffffffffffffffffffffffffffffffffffff161415611431576040517f08c379a0000000000000000000000000000000000000000000000000000000008152600401611428906125da565b60405180910390fd5b80600560008573ffffffffffffffffffffffffffffffffffffffff1673ffffffffffffffffffffffffffffffffffffffff16815260200190815260200160002060008473ffffffffffffffffffffffffffffffffffffffff1673ffffffffffffffffffffffffffffffffffffffff16815260200190815260200160002060006101000a81548160ff0219169083151502179055508173ffffffffffffffffffffffffffffffffffffffff168373ffffffffffffffffffffffffffffffffffffffff167f17307eab39ab6107e8899845ad3d59bd9653f200f220920489ca2b5937696c318360405161152291906124ca565b60405180910390a3505050565b61153a84848461115b565b611546848484846116e5565b611585576040517f08c379a000000000000000000000000000000000000000000000000000000000815260040161157c9061255a565b60405180910390fd5b50505050565b606060405180602001604052806000815250905090565b60606115ad82610f50565b6115ec576040517f08c379a00000000000000000000000000000000000000000000000000000000081526004016115e3906126fa565b60405180910390fd5b60006115f661158b565b905060008151116116165760405180602001604052806000815250611641565b806116208461187c565b60405160200161163192919061243f565b6040516020818303038152906040525b915050919050565b611663828260405180602001604052806000815250611a29565b5050565b61167082610f50565b6116af576040517f08c379a00000000000000000000000000000000000000000000000000000000081526004016116a69061267a565b60405180910390fd5b806006600084815260200190815260200160002090805190602001906116d6929190611c81565b505050565b505050565b505050565b60006117068473ffffffffffffffffffffffffffffffffffffffff16611a84565b1561186f578373ffffffffffffffffffffffffffffffffffffffff1663150b7a0261172f610fbc565b8786866040518563ffffffff1660e01b8152600401611751949392919061247e565b602060405180830381600087803b15801561176b57600080fd5b505af192505050801561179c57506040513d601f19601f820116820180604052508101906117999190612042565b60015b61181f573d80600081146117cc576040519150601f19603f3d011682016040523d82523d6000602084013e6117d1565b606091505b50600081511415611817576040517f08c379a000000000000000000000000000000000000000000000000000000000815260040161180e9061255a565b60405180910390fd5b805181602001fd5b63150b7a0260e01b7bffffffffffffffffffffffffffffffffffffffffffffffffffffffff1916817bffffffffffffffffffffffffffffffffffffffffffffffffffffffff191614915050611874565b600190505b949350505050565b606060008214156118c4576040518060400160405280600181526020017f30000000000000000000000000000000000000000000000000000000000000008152509050611a24565b600082905060005b600082146118f65780806118df90612a23565b915050600a826118ef9190612895565b91506118cc565b60008167ffffffffffffffff811115611938577f4e487b7100000000000000000000000000000000000000000000000000000000600052604160045260246000fd5b6040519080825280601f01601f19166020018201604052801561196a5781602001600182028036833780820191505090505b5090505b60008514611a1d5760018261198391906128c6565b9150600a856119929190612a6c565b603061199e919061283f565b60f81b8183815181106119da577f4e487b7100000000000000000000000000000000000000000000000000000000600052603260045260246000fd5b60200101907effffffffffffffffffffffffffffffffffffffffffffffffffffffffffffff1916908160001a905350600a85611a169190612895565b945061196e565b8093505050505b919050565b611a338383611aa7565b611a4060008484846116e5565b611a7f576040517f08c379a0000000000000000000000000000000000000000000000000000000008152600401611a769061255a565b60405180910390fd5b505050565b6000808273ffffffffffffffffffffffffffffffffffffffff163b119050919050565b600073ffffffffffffffffffffffffffffffffffffffff168273ffffffffffffffffffffffffffffffffffffffff161415611b17576040517f08c379a0000000000000000000000000000000000000000000000000000000008152600401611b0e9061269a565b60405180910390fd5b611b2081610f50565b15611b60576040517f08c379a0000000000000000000000000000000000000000000000000000000008152600401611b579061259a565b60405180910390fd5b611b6c600083836116db565b6001600360008473ffffffffffffffffffffffffffffffffffffffff1673ffffffffffffffffffffffffffffffffffffffff1681526020019081526020016000206000828254611bbc919061283f565b92505081905550816002600083815260200190815260200160002060006101000a81548173ffffffffffffffffffffffffffffffffffffffff021916908373ffffffffffffffffffffffffffffffffffffffff160217905550808273ffffffffffffffffffffffffffffffffffffffff16600073ffffffffffffffffffffffffffffffffffffffff167fddf252ad1be2c89b69c2b068fc378daa952ba7f163c4a11628f55a4df523b3ef60405160405180910390a4611c7d600083836116e0565b5050565b828054611c8d906129c0565b90600052602060002090601f016020900481019282611caf5760008555611cf6565b82601f10611cc857805160ff1916838001178555611cf6565b82800160010185558215611cf6579182015b82811115611cf5578251825591602001919060010190611cda565b5b509050611d039190611d07565b5090565b5b80821115611d20576000816000905550600101611d08565b5090565b6000611d37611d328461279a565b612775565b905082815260208101848484011115611d4f57600080fd5b611d5a84828561297e565b509392505050565b6000611d75611d70846127cb565b612775565b905082815260208101848484011115611d8d57600080fd5b611d9884828561297e565b509392505050565b600081359050611daf81612fe8565b92915050565b600081359050611dc481612fff565b92915050565b600081359050611dd981613016565b92915050565b600081519050611dee81613016565b92915050565b600082601f830112611e0557600080fd5b8135611e15848260208601611d24565b91505092915050565b600082601f830112611e2f57600080fd5b8135611e3f848260208601611d62565b91505092915050565b600081359050611e578161302d565b92915050565b600081359050611e6c81613044565b92915050565b600060208284031215611e8457600080fd5b6000611e9284828501611da0565b91505092915050565b60008060408385031215611eae57600080fd5b6000611ebc85828601611da0565b9250506020611ecd85828601611da0565b9150509250929050565b600080600060608486031215611eec57600080fd5b6000611efa86828701611da0565b9350506020611f0b86828701611da0565b9250506040611f1c86828701611e48565b9150509250925092565b60008060008060808587031215611f3c57600080fd5b6000611f4a87828801611da0565b9450506020611f5b87828801611da0565b9350506040611f6c87828801611e48565b925050606085013567ffffffffffffffff811115611f8957600080fd5b611f9587828801611df4565b91505092959194509250565b60008060408385031215611fb457600080fd5b6000611fc285828601611da0565b9250506020611fd385828601611db5565b9150509250929050565b60008060408385031215611ff057600080fd5b6000611ffe85828601611da0565b925050602061200f85828601611e48565b9150509250929050565b60006020828403121561202b57600080fd5b600061203984828501611dca565b91505092915050565b60006020828403121561205457600080fd5b600061206284828501611ddf565b91505092915050565b6000806000806080858703121561208157600080fd5b600085013567ffffffffffffffff81111561209b57600080fd5b6120a787828801611e1e565b94505060206120b887828801611e5d565b935050604085013567ffffffffffffffff8111156120d557600080fd5b6120e187828801611e1e565b925050606085013567ffffffffffffffff8111156120fe57600080fd5b61210a87828801611e1e565b91505092959194509250565b60006020828403121561212857600080fd5b600061213684828501611e48565b91505092915050565b612148816128fa565b82525050565b6121578161290c565b82525050565b6000612168826127fc565b6121728185612812565b935061218281856020860161298d565b61218b81612b59565b840191505092915050565b60006121a182612807565b6121ab8185612823565b93506121bb81856020860161298d565b6121c481612b59565b840191505092915050565b60006121da82612807565b6121e48185612834565b93506121f481856020860161298d565b80840191505092915050565b600061220d603283612823565b915061221882612b6a565b604082019050919050565b6000612230602583612823565b915061223b82612bb9565b604082019050919050565b6000612253601c83612823565b915061225e82612c08565b602082019050919050565b6000612276602483612823565b915061228182612c31565b604082019050919050565b6000612299601983612823565b91506122a482612c80565b602082019050919050565b60006122bc602c83612823565b91506122c782612ca9565b604082019050919050565b60006122df603883612823565b91506122ea82612cf8565b604082019050919050565b6000612302602a83612823565b915061230d82612d47565b604082019050919050565b6000612325602983612823565b915061233082612d96565b604082019050919050565b6000612348602e83612823565b915061235382612de5565b604082019050919050565b600061236b602083612823565b915061237682612e34565b602082019050919050565b600061238e603183612823565b915061239982612e5d565b604082019050919050565b60006123b1602c83612823565b91506123bc82612eac565b604082019050919050565b60006123d4602f83612823565b91506123df82612efb565b604082019050919050565b60006123f7602183612823565b915061240282612f4a565b604082019050919050565b600061241a603183612823565b915061242582612f99565b604082019050919050565b61243981612964565b82525050565b600061244b82856121cf565b915061245782846121cf565b91508190509392505050565b6000602082019050612478600083018461213f565b92915050565b6000608082019050612493600083018761213f565b6124a0602083018661213f565b6124ad6040830185612430565b81810360608301526124bf818461215d565b905095945050505050565b60006020820190506124df600083018461214e565b92915050565b600060208201905081810360008301526124ff8184612196565b905092915050565b600060808201905081810360008301526125218187612196565b90506125306020830186612430565b61253d6040830185612430565b818103606083015261254f8184612196565b905095945050505050565b6000602082019050818103600083015261257381612200565b9050919050565b6000602082019050818103600083015261259381612223565b9050919050565b600060208201905081810360008301526125b381612246565b9050919050565b600060208201905081810360008301526125d381612269565b9050919050565b600060208201905081810360008301526125f38161228c565b9050919050565b60006020820190508181036000830152612613816122af565b9050919050565b60006020820190508181036000830152612633816122d2565b9050919050565b60006020820190508181036000830152612653816122f5565b9050919050565b6000602082019050818103600083015261267381612318565b9050919050565b600060208201905081810360008301526126938161233b565b9050919050565b600060208201905081810360008301526126b38161235e565b9050919050565b600060208201905081810360008301526126d381612381565b9050919050565b600060208201905081810360008301526126f3816123a4565b9050919050565b60006020820190508181036000830152612713816123c7565b9050919050565b60006020820190508181036000830152612733816123ea565b9050919050565b600060208201905081810360008301526127538161240d565b9050919050565b600060208201905061276f6000830184612430565b92915050565b600061277f612790565b905061278b82826129f2565b919050565b6000604051905090565b600067ffffffffffffffff8211156127b5576127b4612b2a565b5b6127be82612b59565b9050602081019050919050565b600067ffffffffffffffff8211156127e6576127e5612b2a565b5b6127ef82612b59565b9050602081019050919050565b600081519050919050565b600081519050919050565b600082825260208201905092915050565b600082825260208201905092915050565b600081905092915050565b600061284a82612964565b915061285583612964565b9250827fffffffffffffffffffffffffffffffffffffffffffffffffffffffffffffffff0382111561288a57612889612a9d565b5b828201905092915050565b60006128a082612964565b91506128ab83612964565b9250826128bb576128ba612acc565b5b828204905092915050565b60006128d182612964565b91506128dc83612964565b9250828210156128ef576128ee612a9d565b5b828203905092915050565b600061290582612944565b9050919050565b60008115159050919050565b60007fffffffff0000000000000000000000000000000000000000000000000000000082169050919050565b600073ffffffffffffffffffffffffffffffffffffffff82169050919050565b6000819050919050565b600063ffffffff82169050919050565b82818337600083830152505050565b60005b838110156129ab578082015181840152602081019050612990565b838111156129ba576000848401525b50505050565b600060028204905060018216806129d857607f821691505b602082108114156129ec576129eb612afb565b5b50919050565b6129fb82612b59565b810181811067ffffffffffffffff82111715612a1a57612a19612b2a565b5b80604052505050565b6000612a2e82612964565b91507fffffffffffffffffffffffffffffffffffffffffffffffffffffffffffffffff821415612a6157612a60612a9d565b5b600182019050919050565b6000612a7782612964565b9150612a8283612964565b925082612a9257612a91612acc565b5b828206905092915050565b7f4e487b7100000000000000000000000000000000000000000000000000000000600052601160045260246000fd5b7f4e487b7100000000000000000000000000000000000000000000000000000000600052601260045260246000fd5b7f4e487b7100000000000000000000000000000000000000000000000000000000600052602260045260246000fd5b7f4e487b7100000000000000000000000000000000000000000000000000000000600052604160045260246000fd5b6000601f19601f8301169050919050565b7f4552433732313a207472616e7366657220746f206e6f6e20455243373231526560008201527f63656976657220696d706c656d656e7465720000000000000000000000000000602082015250565b7f4552433732313a207472616e736665722066726f6d20696e636f72726563742060008201527f6f776e6572000000000000000000000000000000000000000000000000000000602082015250565b7f4552433732313a20746f6b656e20616c7265616479206d696e74656400000000600082015250565b7f4552433732313a207472616e7366657220746f20746865207a65726f2061646460008201527f7265737300000000000000000000000000000000000000000000000000000000602082015250565b7f4552433732313a20617070726f766520746f2063616c6c657200000000000000600082015250565b7f4552433732313a206f70657261746f7220717565727920666f72206e6f6e657860008201527f697374656e7420746f6b656e0000000000000000000000000000000000000000602082015250565b7f4552433732313a20617070726f76652063616c6c6572206973206e6f74206f7760008201527f6e6572206e6f7220617070726f76656420666f7220616c6c0000000000000000602082015250565b7f4552433732313a2062616c616e636520717565727920666f7220746865207a6560008201527f726f206164647265737300000000000000000000000000000000000000000000602082015250565b7f4552433732313a206f776e657220717565727920666f72206e6f6e657869737460008201527f656e7420746f6b656e0000000000000000000000000000000000000000000000602082015250565b7f45524337323155524953746f726167653a2055524920736574206f66206e6f6e60008201527f6578697374656e7420746f6b656e000000000000000000000000000000000000602082015250565b7f4552433732313a206d696e7420746f20746865207a65726f2061646472657373600082015250565b7f45524337323155524953746f726167653a2055524920717565727920666f722060008201527f6e6f6e6578697374656e7420746f6b656e000000000000000000000000000000602082015250565b7f4552433732313a20617070726f76656420717565727920666f72206e6f6e657860008201527f697374656e7420746f6b656e0000000000000000000000000000000000000000602082015250565b7f4552433732314d657461646174613a2055524920717565727920666f72206e6f60008201527f6e6578697374656e7420746f6b656e0000000000000000000000000000000000602082015250565b7f4552433732313a20617070726f76616c20746f2063757272656e74206f776e6560008201527f7200000000000000000000000000000000000000000000000000000000000000602082015250565b7f4552433732313a207472616e736665722063616c6c6572206973206e6f74206f60008201527f776e6572206e6f7220617070726f766564000000000000000000000000000000602082015250565b612ff1816128fa565b8114612ffc57600080fd5b50565b6130088161290c565b811461301357600080fd5b50565b61301f81612918565b811461302a57600080fd5b50565b61303681612964565b811461304157600080fd5b50565b61304d8161296e565b811461305857600080fd5b5056fea26469706673582212206269ed8f3685136751ed14e69485db3525f9186b9cbd94ce90ba267ef598667364736f6c63430008040033",
  "linkReferences": {},
  "deployedLinkReferences": {}
}