{
  "_format": "hh-sol-artifact-1",
  "contractName": "NFT",
  "sourceName": "src/backend/contracts/NFT.sol",
  "abi": [
    {
      "inputs": [],
      "stateMutability": "nonpayable",
      "type": "constructor"
    },
    {
      "anonymous": false,
      "inputs": [
        {
          "indexed": true,
          "internalType": "address",
          "name": "owner",
          "type": "address"
        },
        {
          "indexed": true,
          "internalType": "address",
          "name": "approved",
          "type": "address"
        },
        {
          "indexed": true,
          "internalType": "uint256",
          "name": "tokenId",
          "type": "uint256"
        }
      ],
      "name": "Approval",
      "type": "event"
    },
    {
      "anonymous": false,
      "inputs": [
        {
          "indexed": true,
          "internalType": "address",
          "name": "owner",
          "type": "address"
        },
        {
          "indexed": true,
          "internalType": "address",
          "name": "operator",
          "type": "address"
        },
        {
          "indexed": false,
          "internalType": "bool",
          "name": "approved",
          "type": "bool"
        }
      ],
      "name": "ApprovalForAll",
      "type": "event"
    },
    {
      "anonymous": false,
      "inputs": [
        {
          "indexed": true,
          "internalType": "address",
          "name": "from",
          "type": "address"
        },
        {
          "indexed": true,
          "internalType": "address",
          "name": "to",
          "type": "address"
        },
        {
          "indexed": true,
          "internalType": "uint256",
          "name": "tokenId",
          "type": "uint256"
        }
      ],
      "name": "Transfer",
      "type": "event"
    },
    {
      "inputs": [
        {
          "internalType": "address",
          "name": "to",
          "type": "address"
        },
        {
          "internalType": "uint256",
          "name": "tokenId",
          "type": "uint256"
        }
      ],
      "name": "approve",
      "outputs": [],
      "stateMutability": "nonpayable",
      "type": "function"
    },
    {
      "inputs": [
        {
          "internalType": "address",
          "name": "owner",
          "type": "address"
        }
      ],
      "name": "balanceOf",
      "outputs": [
        {
          "internalType": "uint256",
          "name": "",
          "type": "uint256"
        }
      ],
      "stateMutability": "view",
      "type": "function"
    },
    {
      "inputs": [
        {
          "internalType": "uint256",
          "name": "",
          "type": "uint256"
        }
      ],
      "name": "collections",
      "outputs": [
        {
          "internalType": "string",
          "name": "collection_name",
          "type": "string"
        },
        {
          "internalType": "uint256",
          "name": "exist",
          "type": "uint256"
        },
        {
          "internalType": "uint256",
          "name": "token_id",
          "type": "uint256"
        },
        {
          "internalType": "string",
          "name": "description",
          "type": "string"
        },
        {
          "internalType": "bool",
          "name": "used",
          "type": "bool"
        }
      ],
      "stateMutability": "view",
      "type": "function"
    },
    {
      "inputs": [
        {
          "internalType": "uint256",
          "name": "tokenId",
          "type": "uint256"
        }
      ],
      "name": "getApproved",
      "outputs": [
        {
          "internalType": "address",
          "name": "",
          "type": "address"
        }
      ],
      "stateMutability": "view",
      "type": "function"
    },
    {
      "inputs": [
        {
          "internalType": "address",
          "name": "owner",
          "type": "address"
        },
        {
          "internalType": "address",
          "name": "operator",
          "type": "address"
        }
      ],
      "name": "isApprovedForAll",
      "outputs": [
        {
          "internalType": "bool",
          "name": "",
          "type": "bool"
        }
      ],
      "stateMutability": "view",
      "type": "function"
    },
    {
      "inputs": [
        {
          "internalType": "string",
          "name": "_name",
          "type": "string"
        },
        {
          "internalType": "uint256",
          "name": "_exist",
          "type": "uint256"
        },
        {
          "internalType": "string",
          "name": "_description",
          "type": "string"
        },
        {
          "internalType": "string",
          "name": "_tokenURI",
          "type": "string"
        }
      ],
      "name": "mint",
      "outputs": [
        {
          "internalType": "string",
          "name": "",
          "type": "string"
        },
        {
          "internalType": "uint256",
          "name": "",
          "type": "uint256"
        }
      ],
      "stateMutability": "nonpayable",
      "type": "function"
    },
    {
      "inputs": [],
      "name": "name",
      "outputs": [
        {
          "internalType": "string",
          "name": "",
          "type": "string"
        }
      ],
      "stateMutability": "view",
      "type": "function"
    },
    {
      "inputs": [
        {
          "internalType": "uint256",
          "name": "tokenId",
          "type": "uint256"
        }
      ],
      "name": "ownerOf",
      "outputs": [
        {
          "internalType": "address",
          "name": "",
          "type": "address"
        }
      ],
      "stateMutability": "view",
      "type": "function"
    },
    {
      "inputs": [
        {
          "internalType": "address",
          "name": "from",
          "type": "address"
        },
        {
          "internalType": "address",
          "name": "to",
          "type": "address"
        },
        {
          "internalType": "uint256",
          "name": "tokenId",
          "type": "uint256"
        }
      ],
      "name": "safeTransferFrom",
      "outputs": [],
      "stateMutability": "nonpayable",
      "type": "function"
    },
    {
      "inputs": [
        {
          "internalType": "address",
          "name": "from",
          "type": "address"
        },
        {
          "internalType": "address",
          "name": "to",
          "type": "address"
        },
        {
          "internalType": "uint256",
          "name": "tokenId",
          "type": "uint256"
        },
        {
          "internalType": "bytes",
          "name": "_data",
          "type": "bytes"
        }
      ],
      "name": "safeTransferFrom",
      "outputs": [],
      "stateMutability": "nonpayable",
      "type": "function"
    },
    {
      "inputs": [
        {
          "internalType": "address",
          "name": "operator",
          "type": "address"
        },
        {
          "internalType": "bool",
          "name": "approved",
          "type": "bool"
        }
      ],
      "name": "setApprovalForAll",
      "outputs": [],
      "stateMutability": "nonpayable",
      "type": "function"
    },
    {
      "inputs": [
        {
          "internalType": "bytes4",
          "name": "interfaceId",
          "type": "bytes4"
        }
      ],
      "name": "supportsInterface",
      "outputs": [
        {
          "internalType": "bool",
          "name": "",
          "type": "bool"
        }
      ],
      "stateMutability": "view",
      "type": "function"
    },
    {
      "inputs": [],
      "name": "symbol",
      "outputs": [
        {
          "internalType": "string",
          "name": "",
          "type": "string"
        }
      ],
      "stateMutability": "view",
      "type": "function"
    },
    {
      "inputs": [
        {
          "internalType": "uint256",
          "name": "tokenId",
          "type": "uint256"
        }
      ],
      "name": "tokenURI",
      "outputs": [
        {
          "internalType": "string",
          "name": "",
          "type": "string"
        }
      ],
      "stateMutability": "view",
      "type": "function"
    },
    {
      "inputs": [
        {
          "internalType": "address",
          "name": "from",
          "type": "address"
        },
        {
          "internalType": "address",
          "name": "to",
          "type": "address"
        },
        {
          "internalType": "uint256",
          "name": "tokenId",
          "type": "uint256"
        }
      ],
      "name": "transferFrom",
      "outputs": [],
      "stateMutability": "nonpayable",
      "type": "function"
    }
  ],
  "bytecode": "0x60806040523480156200001157600080fd5b506040518060400160405280600881526020017f44417070204e46540000000000000000000000000000000000000000000000008152506040518060400160405280600481526020017f4441505000000000000000000000000000000000000000000000000000000000815250816000908051906020019062000096929190620000b8565b508060019080519060200190620000af929190620000b8565b505050620001cd565b828054620000c69062000168565b90600052602060002090601f016020900481019282620000ea576000855562000136565b82601f106200010557805160ff191683800117855562000136565b8280016001018555821562000136579182015b828111156200013557825182559160200191906001019062000118565b5b50905062000145919062000149565b5090565b5b80821115620001645760008160009055506001016200014a565b5090565b600060028204905060018216806200018157607f821691505b602082108114156200019857620001976200019e565b5b50919050565b7f4e487b7100000000000000000000000000000000000000000000000000000000600052602260045260246000fd5b612f9d80620001dd6000396000f3fe608060405234801561001057600080fd5b50600436106100f55760003560e01c806370a0823111610097578063c87b56dd11610066578063c87b56dd14610282578063e985e9c5146102b2578063f12ee167146102e2578063fdbda0ec14610313576100f5565b806370a08231146101fc57806395d89b411461022c578063a22cb4651461024a578063b88d4fde14610266576100f5565b8063095ea7b3116100d3578063095ea7b31461017857806323b872dd1461019457806342842e0e146101b05780636352211e146101cc576100f5565b806301ffc9a7146100fa57806306fdde031461012a578063081812fc14610148575b600080fd5b610114600480360381019061010f9190611f0e565b610347565b60405161012191906123bf565b60405180910390f35b610132610429565b60405161013f91906123da565b60405180910390f35b610162600480360381019061015d919061200b565b6104bb565b60405161016f9190612358565b60405180910390f35b610192600480360381019061018d9190611ed2565b610540565b005b6101ae60048036038101906101a99190611dcc565b610658565b005b6101ca60048036038101906101c59190611dcc565b6106b8565b005b6101e660048036038101906101e1919061200b565b6106d8565b6040516101f39190612358565b60405180910390f35b61021660048036038101906102119190611d67565b61078a565b604051610223919061268d565b60405180910390f35b610234610842565b60405161024191906123da565b60405180910390f35b610264600480360381019061025f9190611e96565b6108d4565b005b610280600480360381019061027b9190611e1b565b6108ea565b005b61029c6004803603810190610297919061200b565b61094c565b6040516102a991906123da565b60405180910390f35b6102cc60048036038101906102c79190611d90565b610a9e565b6040516102d991906123bf565b60405180910390f35b6102fc60048036038101906102f79190611f60565b610b32565b60405161030a9291906123fc565b60405180910390f35b61032d6004803603810190610328919061200b565b610c69565b60405161033e95949392919061242c565b60405180910390f35b60007f80ac58cd000000000000000000000000000000000000000000000000000000007bffffffffffffffffffffffffffffffffffffffffffffffffffffffff1916827bffffffffffffffffffffffffffffffffffffffffffffffffffffffff1916148061041257507f5b5e139f000000000000000000000000000000000000000000000000000000007bffffffffffffffffffffffffffffffffffffffffffffffffffffffff1916827bffffffffffffffffffffffffffffffffffffffffffffffffffffffff1916145b80610422575061042182610dcc565b5b9050919050565b606060008054610438906128e3565b80601f0160208091040260200160405190810160405280929190818152602001828054610464906128e3565b80156104b15780601f10610486576101008083540402835291602001916104b1565b820191906000526020600020905b81548152906001019060200180831161049457829003601f168201915b5050505050905090565b60006104c682610e36565b610505576040517f08c379a00000000000000000000000000000000000000000000000000000000081526004016104fc9061260d565b60405180910390fd5b6004600083815260200190815260200160002060009054906101000a900473ffffffffffffffffffffffffffffffffffffffff169050919050565b600061054b826106d8565b90508073ffffffffffffffffffffffffffffffffffffffff168373ffffffffffffffffffffffffffffffffffffffff1614156105bc576040517f08c379a00000000000000000000000000000000000000000000000000000000081526004016105b39061264d565b60405180910390fd5b8073ffffffffffffffffffffffffffffffffffffffff166105db610ea2565b73ffffffffffffffffffffffffffffffffffffffff16148061060a575061060981610604610ea2565b610a9e565b5b610649576040517f08c379a00000000000000000000000000000000000000000000000000000000081526004016106409061254d565b60405180910390fd5b6106538383610eaa565b505050565b610669610663610ea2565b82610f63565b6106a8576040517f08c379a000000000000000000000000000000000000000000000000000000000815260040161069f9061266d565b60405180910390fd5b6106b3838383611041565b505050565b6106d3838383604051806020016040528060008152506108ea565b505050565b6000806002600084815260200190815260200160002060009054906101000a900473ffffffffffffffffffffffffffffffffffffffff169050600073ffffffffffffffffffffffffffffffffffffffff168173ffffffffffffffffffffffffffffffffffffffff161415610781576040517f08c379a00000000000000000000000000000000000000000000000000000000081526004016107789061258d565b60405180910390fd5b80915050919050565b60008073ffffffffffffffffffffffffffffffffffffffff168273ffffffffffffffffffffffffffffffffffffffff1614156107fb576040517f08c379a00000000000000000000000000000000000000000000000000000000081526004016107f29061256d565b60405180910390fd5b600360008373ffffffffffffffffffffffffffffffffffffffff1673ffffffffffffffffffffffffffffffffffffffff168152602001908152602001600020549050919050565b606060018054610851906128e3565b80601f016020809104026020016040519081016040528092919081815260200182805461087d906128e3565b80156108ca5780601f1061089f576101008083540402835291602001916108ca565b820191906000526020600020905b8154815290600101906020018083116108ad57829003601f168201915b5050505050905090565b6108e66108df610ea2565b83836112a8565b5050565b6108fb6108f5610ea2565b83610f63565b61093a576040517f08c379a00000000000000000000000000000000000000000000000000000000081526004016109319061266d565b60405180910390fd5b61094684848484611415565b50505050565b606061095782610e36565b610996576040517f08c379a000000000000000000000000000000000000000000000000000000000815260040161098d906125ed565b60405180910390fd5b60006006600084815260200190815260200160002080546109b6906128e3565b80601f01602080910402602001604051908101604052809291908181526020018280546109e2906128e3565b8015610a2f5780601f10610a0457610100808354040283529160200191610a2f565b820191906000526020600020905b815481529060010190602001808311610a1257829003601f168201915b505050505090506000610a40611471565b9050600081511415610a56578192505050610a99565b600082511115610a8b578082604051602001610a73929190612334565b60405160208183030381529060405292505050610a99565b610a9484611488565b925050505b919050565b6000600560008473ffffffffffffffffffffffffffffffffffffffff1673ffffffffffffffffffffffffffffffffffffffff16815260200190815260200160002060008373ffffffffffffffffffffffffffffffffffffffff1673ffffffffffffffffffffffffffffffffffffffff16815260200190815260200160002060009054906101000a900460ff16905092915050565b6060600080610b41600761152f565b905060008190505b8187610b559190612772565b811015610c585760006040518060a001604052808a815260200189815260200183815260200188815260200160001515815250905060088190806001815401808255809150506001900390600052602060002090600502016000909190919091506000820151816000019080519060200190610bd2929190611b8b565b5060208201518160010155604082015181600201556060820151816003019080519060200190610c03929190611b8b565b5060808201518160040160006101000a81548160ff0219169083151502179055505050610c30338361153d565b610c3a828761155b565b610c4460076115cf565b508080610c5090612946565b915050610b49565b508686925092505094509492505050565b60088181548110610c7957600080fd5b9060005260206000209060050201600091509050806000018054610c9c906128e3565b80601f0160208091040260200160405190810160405280929190818152602001828054610cc8906128e3565b8015610d155780601f10610cea57610100808354040283529160200191610d15565b820191906000526020600020905b815481529060010190602001808311610cf857829003601f168201915b505050505090806001015490806002015490806003018054610d36906128e3565b80601f0160208091040260200160405190810160405280929190818152602001828054610d62906128e3565b8015610daf5780601f10610d8457610100808354040283529160200191610daf565b820191906000526020600020905b815481529060010190602001808311610d9257829003601f168201915b5050505050908060040160009054906101000a900460ff16905085565b60007f01ffc9a7000000000000000000000000000000000000000000000000000000007bffffffffffffffffffffffffffffffffffffffffffffffffffffffff1916827bffffffffffffffffffffffffffffffffffffffffffffffffffffffff1916149050919050565b60008073ffffffffffffffffffffffffffffffffffffffff166002600084815260200190815260200160002060009054906101000a900473ffffffffffffffffffffffffffffffffffffffff1673ffffffffffffffffffffffffffffffffffffffff1614159050919050565b600033905090565b816004600083815260200190815260200160002060006101000a81548173ffffffffffffffffffffffffffffffffffffffff021916908373ffffffffffffffffffffffffffffffffffffffff160217905550808273ffffffffffffffffffffffffffffffffffffffff16610f1d836106d8565b73ffffffffffffffffffffffffffffffffffffffff167f8c5be1e5ebec7d5bd14f71427d1e84f3dd0314c0f7b2291e5b200ac8c7c3b92560405160405180910390a45050565b6000610f6e82610e36565b610fad576040517f08c379a0000000000000000000000000000000000000000000000000000000008152600401610fa49061252d565b60405180910390fd5b6000610fb8836106d8565b90508073ffffffffffffffffffffffffffffffffffffffff168473ffffffffffffffffffffffffffffffffffffffff16148061102757508373ffffffffffffffffffffffffffffffffffffffff1661100f846104bb565b73ffffffffffffffffffffffffffffffffffffffff16145b8061103857506110378185610a9e565b5b91505092915050565b8273ffffffffffffffffffffffffffffffffffffffff16611061826106d8565b73ffffffffffffffffffffffffffffffffffffffff16146110b7576040517f08c379a00000000000000000000000000000000000000000000000000000000081526004016110ae906124ad565b60405180910390fd5b600073ffffffffffffffffffffffffffffffffffffffff168273ffffffffffffffffffffffffffffffffffffffff161415611127576040517f08c379a000000000000000000000000000000000000000000000000000000000815260040161111e906124ed565b60405180910390fd5b6111328383836115e5565b61113d600082610eaa565b6001600360008573ffffffffffffffffffffffffffffffffffffffff1673ffffffffffffffffffffffffffffffffffffffff168152602001908152602001600020600082825461118d91906127f9565b925050819055506001600360008473ffffffffffffffffffffffffffffffffffffffff1673ffffffffffffffffffffffffffffffffffffffff16815260200190815260200160002060008282546111e49190612772565b92505081905550816002600083815260200190815260200160002060006101000a81548173ffffffffffffffffffffffffffffffffffffffff021916908373ffffffffffffffffffffffffffffffffffffffff160217905550808273ffffffffffffffffffffffffffffffffffffffff168473ffffffffffffffffffffffffffffffffffffffff167fddf252ad1be2c89b69c2b068fc378daa952ba7f163c4a11628f55a4df523b3ef60405160405180910390a46112a38383836115ea565b505050565b8173ffffffffffffffffffffffffffffffffffffffff168373ffffffffffffffffffffffffffffffffffffffff161415611317576040517f08c379a000000000000000000000000000000000000000000000000000000000815260040161130e9061250d565b60405180910390fd5b80600560008573ffffffffffffffffffffffffffffffffffffffff1673ffffffffffffffffffffffffffffffffffffffff16815260200190815260200160002060008473ffffffffffffffffffffffffffffffffffffffff1673ffffffffffffffffffffffffffffffffffffffff16815260200190815260200160002060006101000a81548160ff0219169083151502179055508173ffffffffffffffffffffffffffffffffffffffff168373ffffffffffffffffffffffffffffffffffffffff167f17307eab39ab6107e8899845ad3d59bd9653f200f220920489ca2b5937696c318360405161140891906123bf565b60405180910390a3505050565b611420848484611041565b61142c848484846115ef565b61146b576040517f08c379a00000000000000000000000000000000000000000000000000000000081526004016114629061248d565b60405180910390fd5b50505050565b606060405180602001604052806000815250905090565b606061149382610e36565b6114d2576040517f08c379a00000000000000000000000000000000000000000000000000000000081526004016114c99061262d565b60405180910390fd5b60006114dc611471565b905060008151116114fc5760405180602001604052806000815250611527565b8061150684611786565b604051602001611517929190612334565b6040516020818303038152906040525b915050919050565b600081600001549050919050565b611557828260405180602001604052806000815250611933565b5050565b61156482610e36565b6115a3576040517f08c379a000000000000000000000000000000000000000000000000000000000815260040161159a906125ad565b60405180910390fd5b806006600084815260200190815260200160002090805190602001906115ca929190611b8b565b505050565b6001816000016000828254019250508190555050565b505050565b505050565b60006116108473ffffffffffffffffffffffffffffffffffffffff1661198e565b15611779578373ffffffffffffffffffffffffffffffffffffffff1663150b7a02611639610ea2565b8786866040518563ffffffff1660e01b815260040161165b9493929190612373565b602060405180830381600087803b15801561167557600080fd5b505af19250505080156116a657506040513d601f19601f820116820180604052508101906116a39190611f37565b60015b611729573d80600081146116d6576040519150601f19603f3d011682016040523d82523d6000602084013e6116db565b606091505b50600081511415611721576040517f08c379a00000000000000000000000000000000000000000000000000000000081526004016117189061248d565b60405180910390fd5b805181602001fd5b63150b7a0260e01b7bffffffffffffffffffffffffffffffffffffffffffffffffffffffff1916817bffffffffffffffffffffffffffffffffffffffffffffffffffffffff19161491505061177e565b600190505b949350505050565b606060008214156117ce576040518060400160405280600181526020017f3000000000000000000000000000000000000000000000000000000000000000815250905061192e565b600082905060005b600082146118005780806117e990612946565b915050600a826117f991906127c8565b91506117d6565b60008167ffffffffffffffff811115611842577f4e487b7100000000000000000000000000000000000000000000000000000000600052604160045260246000fd5b6040519080825280601f01601f1916602001820160405280156118745781602001600182028036833780820191505090505b5090505b600085146119275760018261188d91906127f9565b9150600a8561189c919061298f565b60306118a89190612772565b60f81b8183815181106118e4577f4e487b7100000000000000000000000000000000000000000000000000000000600052603260045260246000fd5b60200101907effffffffffffffffffffffffffffffffffffffffffffffffffffffffffffff1916908160001a905350600a8561192091906127c8565b9450611878565b8093505050505b919050565b61193d83836119b1565b61194a60008484846115ef565b611989576040517f08c379a00000000000000000000000000000000000000000000000000000000081526004016119809061248d565b60405180910390fd5b505050565b6000808273ffffffffffffffffffffffffffffffffffffffff163b119050919050565b600073ffffffffffffffffffffffffffffffffffffffff168273ffffffffffffffffffffffffffffffffffffffff161415611a21576040517f08c379a0000000000000000000000000000000000000000000000000000000008152600401611a18906125cd565b60405180910390fd5b611a2a81610e36565b15611a6a576040517f08c379a0000000000000000000000000000000000000000000000000000000008152600401611a61906124cd565b60405180910390fd5b611a76600083836115e5565b6001600360008473ffffffffffffffffffffffffffffffffffffffff1673ffffffffffffffffffffffffffffffffffffffff1681526020019081526020016000206000828254611ac69190612772565b92505081905550816002600083815260200190815260200160002060006101000a81548173ffffffffffffffffffffffffffffffffffffffff021916908373ffffffffffffffffffffffffffffffffffffffff160217905550808273ffffffffffffffffffffffffffffffffffffffff16600073ffffffffffffffffffffffffffffffffffffffff167fddf252ad1be2c89b69c2b068fc378daa952ba7f163c4a11628f55a4df523b3ef60405160405180910390a4611b87600083836115ea565b5050565b828054611b97906128e3565b90600052602060002090601f016020900481019282611bb95760008555611c00565b82601f10611bd257805160ff1916838001178555611c00565b82800160010185558215611c00579182015b82811115611bff578251825591602001919060010190611be4565b5b509050611c0d9190611c11565b5090565b5b80821115611c2a576000816000905550600101611c12565b5090565b6000611c41611c3c846126cd565b6126a8565b905082815260208101848484011115611c5957600080fd5b611c648482856128a1565b509392505050565b6000611c7f611c7a846126fe565b6126a8565b905082815260208101848484011115611c9757600080fd5b611ca28482856128a1565b509392505050565b600081359050611cb981612f0b565b92915050565b600081359050611cce81612f22565b92915050565b600081359050611ce381612f39565b92915050565b600081519050611cf881612f39565b92915050565b600082601f830112611d0f57600080fd5b8135611d1f848260208601611c2e565b91505092915050565b600082601f830112611d3957600080fd5b8135611d49848260208601611c6c565b91505092915050565b600081359050611d6181612f50565b92915050565b600060208284031215611d7957600080fd5b6000611d8784828501611caa565b91505092915050565b60008060408385031215611da357600080fd5b6000611db185828601611caa565b9250506020611dc285828601611caa565b9150509250929050565b600080600060608486031215611de157600080fd5b6000611def86828701611caa565b9350506020611e0086828701611caa565b9250506040611e1186828701611d52565b9150509250925092565b60008060008060808587031215611e3157600080fd5b6000611e3f87828801611caa565b9450506020611e5087828801611caa565b9350506040611e6187828801611d52565b925050606085013567ffffffffffffffff811115611e7e57600080fd5b611e8a87828801611cfe565b91505092959194509250565b60008060408385031215611ea957600080fd5b6000611eb785828601611caa565b9250506020611ec885828601611cbf565b9150509250929050565b60008060408385031215611ee557600080fd5b6000611ef385828601611caa565b9250506020611f0485828601611d52565b9150509250929050565b600060208284031215611f2057600080fd5b6000611f2e84828501611cd4565b91505092915050565b600060208284031215611f4957600080fd5b6000611f5784828501611ce9565b91505092915050565b60008060008060808587031215611f7657600080fd5b600085013567ffffffffffffffff811115611f9057600080fd5b611f9c87828801611d28565b9450506020611fad87828801611d52565b935050604085013567ffffffffffffffff811115611fca57600080fd5b611fd687828801611d28565b925050606085013567ffffffffffffffff811115611ff357600080fd5b611fff87828801611d28565b91505092959194509250565b60006020828403121561201d57600080fd5b600061202b84828501611d52565b91505092915050565b61203d8161282d565b82525050565b61204c8161283f565b82525050565b600061205d8261272f565b6120678185612745565b93506120778185602086016128b0565b61208081612a7c565b840191505092915050565b60006120968261273a565b6120a08185612756565b93506120b08185602086016128b0565b6120b981612a7c565b840191505092915050565b60006120cf8261273a565b6120d98185612767565b93506120e98185602086016128b0565b80840191505092915050565b6000612102603283612756565b915061210d82612a8d565b604082019050919050565b6000612125602583612756565b915061213082612adc565b604082019050919050565b6000612148601c83612756565b915061215382612b2b565b602082019050919050565b600061216b602483612756565b915061217682612b54565b604082019050919050565b600061218e601983612756565b915061219982612ba3565b602082019050919050565b60006121b1602c83612756565b91506121bc82612bcc565b604082019050919050565b60006121d4603883612756565b91506121df82612c1b565b604082019050919050565b60006121f7602a83612756565b915061220282612c6a565b604082019050919050565b600061221a602983612756565b915061222582612cb9565b604082019050919050565b600061223d602e83612756565b915061224882612d08565b604082019050919050565b6000612260602083612756565b915061226b82612d57565b602082019050919050565b6000612283603183612756565b915061228e82612d80565b604082019050919050565b60006122a6602c83612756565b91506122b182612dcf565b604082019050919050565b60006122c9602f83612756565b91506122d482612e1e565b604082019050919050565b60006122ec602183612756565b91506122f782612e6d565b604082019050919050565b600061230f603183612756565b915061231a82612ebc565b604082019050919050565b61232e81612897565b82525050565b600061234082856120c4565b915061234c82846120c4565b91508190509392505050565b600060208201905061236d6000830184612034565b92915050565b60006080820190506123886000830187612034565b6123956020830186612034565b6123a26040830185612325565b81810360608301526123b48184612052565b905095945050505050565b60006020820190506123d46000830184612043565b92915050565b600060208201905081810360008301526123f4818461208b565b905092915050565b60006040820190508181036000830152612416818561208b565b90506124256020830184612325565b9392505050565b600060a0820190508181036000830152612446818861208b565b90506124556020830187612325565b6124626040830186612325565b8181036060830152612474818561208b565b90506124836080830184612043565b9695505050505050565b600060208201905081810360008301526124a6816120f5565b9050919050565b600060208201905081810360008301526124c681612118565b9050919050565b600060208201905081810360008301526124e68161213b565b9050919050565b600060208201905081810360008301526125068161215e565b9050919050565b6000602082019050818103600083015261252681612181565b9050919050565b60006020820190508181036000830152612546816121a4565b9050919050565b60006020820190508181036000830152612566816121c7565b9050919050565b60006020820190508181036000830152612586816121ea565b9050919050565b600060208201905081810360008301526125a68161220d565b9050919050565b600060208201905081810360008301526125c681612230565b9050919050565b600060208201905081810360008301526125e681612253565b9050919050565b6000602082019050818103600083015261260681612276565b9050919050565b6000602082019050818103600083015261262681612299565b9050919050565b60006020820190508181036000830152612646816122bc565b9050919050565b60006020820190508181036000830152612666816122df565b9050919050565b6000602082019050818103600083015261268681612302565b9050919050565b60006020820190506126a26000830184612325565b92915050565b60006126b26126c3565b90506126be8282612915565b919050565b6000604051905090565b600067ffffffffffffffff8211156126e8576126e7612a4d565b5b6126f182612a7c565b9050602081019050919050565b600067ffffffffffffffff82111561271957612718612a4d565b5b61272282612a7c565b9050602081019050919050565b600081519050919050565b600081519050919050565b600082825260208201905092915050565b600082825260208201905092915050565b600081905092915050565b600061277d82612897565b915061278883612897565b9250827fffffffffffffffffffffffffffffffffffffffffffffffffffffffffffffffff038211156127bd576127bc6129c0565b5b828201905092915050565b60006127d382612897565b91506127de83612897565b9250826127ee576127ed6129ef565b5b828204905092915050565b600061280482612897565b915061280f83612897565b925082821015612822576128216129c0565b5b828203905092915050565b600061283882612877565b9050919050565b60008115159050919050565b60007fffffffff0000000000000000000000000000000000000000000000000000000082169050919050565b600073ffffffffffffffffffffffffffffffffffffffff82169050919050565b6000819050919050565b82818337600083830152505050565b60005b838110156128ce5780820151818401526020810190506128b3565b838111156128dd576000848401525b50505050565b600060028204905060018216806128fb57607f821691505b6020821081141561290f5761290e612a1e565b5b50919050565b61291e82612a7c565b810181811067ffffffffffffffff8211171561293d5761293c612a4d565b5b80604052505050565b600061295182612897565b91507fffffffffffffffffffffffffffffffffffffffffffffffffffffffffffffffff821415612984576129836129c0565b5b600182019050919050565b600061299a82612897565b91506129a583612897565b9250826129b5576129b46129ef565b5b828206905092915050565b7f4e487b7100000000000000000000000000000000000000000000000000000000600052601160045260246000fd5b7f4e487b7100000000000000000000000000000000000000000000000000000000600052601260045260246000fd5b7f4e487b7100000000000000000000000000000000000000000000000000000000600052602260045260246000fd5b7f4e487b7100000000000000000000000000000000000000000000000000000000600052604160045260246000fd5b6000601f19601f8301169050919050565b7f4552433732313a207472616e7366657220746f206e6f6e20455243373231526560008201527f63656976657220696d706c656d656e7465720000000000000000000000000000602082015250565b7f4552433732313a207472616e736665722066726f6d20696e636f72726563742060008201527f6f776e6572000000000000000000000000000000000000000000000000000000602082015250565b7f4552433732313a20746f6b656e20616c7265616479206d696e74656400000000600082015250565b7f4552433732313a207472616e7366657220746f20746865207a65726f2061646460008201527f7265737300000000000000000000000000000000000000000000000000000000602082015250565b7f4552433732313a20617070726f766520746f2063616c6c657200000000000000600082015250565b7f4552433732313a206f70657261746f7220717565727920666f72206e6f6e657860008201527f697374656e7420746f6b656e0000000000000000000000000000000000000000602082015250565b7f4552433732313a20617070726f76652063616c6c6572206973206e6f74206f7760008201527f6e6572206e6f7220617070726f76656420666f7220616c6c0000000000000000602082015250565b7f4552433732313a2062616c616e636520717565727920666f7220746865207a6560008201527f726f206164647265737300000000000000000000000000000000000000000000602082015250565b7f4552433732313a206f776e657220717565727920666f72206e6f6e657869737460008201527f656e7420746f6b656e0000000000000000000000000000000000000000000000602082015250565b7f45524337323155524953746f726167653a2055524920736574206f66206e6f6e60008201527f6578697374656e7420746f6b656e000000000000000000000000000000000000602082015250565b7f4552433732313a206d696e7420746f20746865207a65726f2061646472657373600082015250565b7f45524337323155524953746f726167653a2055524920717565727920666f722060008201527f6e6f6e6578697374656e7420746f6b656e000000000000000000000000000000602082015250565b7f4552433732313a20617070726f76656420717565727920666f72206e6f6e657860008201527f697374656e7420746f6b656e0000000000000000000000000000000000000000602082015250565b7f4552433732314d657461646174613a2055524920717565727920666f72206e6f60008201527f6e6578697374656e7420746f6b656e0000000000000000000000000000000000602082015250565b7f4552433732313a20617070726f76616c20746f2063757272656e74206f776e6560008201527f7200000000000000000000000000000000000000000000000000000000000000602082015250565b7f4552433732313a207472616e736665722063616c6c6572206973206e6f74206f60008201527f776e6572206e6f7220617070726f766564000000000000000000000000000000602082015250565b612f148161282d565b8114612f1f57600080fd5b50565b612f2b8161283f565b8114612f3657600080fd5b50565b612f428161284b565b8114612f4d57600080fd5b50565b612f5981612897565b8114612f6457600080fd5b5056fea264697066735822122076ca1a05659faa19539f6ac37eeddc1760fee9f388b8346981b5ba724183725464736f6c63430008040033",
  "linkReferences": {},
  "deployedLinkReferences": {}
}